{
  "_format": "hh-sol-artifact-1",
  "contractName": "MyRaffle",
  "sourceName": "contracts/MyRaffle.sol",
  "abi": [
    {
      "inputs": [
        {
          "internalType": "address",
          "name": "vrfCoordinatorV2",
          "type": "address"
        },
        {
          "internalType": "uint256",
          "name": "entranceFee",
          "type": "uint256"
        },
        {
          "internalType": "bytes32",
          "name": "gasLane",
          "type": "bytes32"
        },
        {
          "internalType": "uint64",
          "name": "subscriptionID",
          "type": "uint64"
        },
        {
          "internalType": "uint32",
          "name": "callbackGasLimit",
          "type": "uint32"
        },
        {
          "internalType": "uint256",
          "name": "interval",
          "type": "uint256"
        }
      ],
      "stateMutability": "nonpayable",
      "type": "constructor"
    },
    {
      "inputs": [
        {
          "internalType": "address",
          "name": "have",
          "type": "address"
        },
        {
          "internalType": "address",
          "name": "want",
          "type": "address"
        }
      ],
      "name": "OnlyCoordinatorCanFulfill",
      "type": "error"
    },
    {
      "inputs": [],
      "name": "Raffle__NotEnoughEth",
      "type": "error"
    },
    {
      "inputs": [],
      "name": "Raffle__NotOpen",
      "type": "error"
    },
    {
      "inputs": [],
      "name": "Raffle__TransferFailed",
      "type": "error"
    },
    {
      "inputs": [
        {
          "internalType": "uint256",
          "name": "currentBalance",
          "type": "uint256"
        },
        {
          "internalType": "uint256",
          "name": "numPlayers",
          "type": "uint256"
        },
        {
          "internalType": "uint256",
          "name": "raffleState",
          "type": "uint256"
        }
      ],
      "name": "Raffle__UpkeepNotNeeded",
      "type": "error"
    },
    {
      "anonymous": false,
      "inputs": [
        {
          "indexed": false,
          "internalType": "address",
          "name": "indexedPlayer",
          "type": "address"
        }
      ],
      "name": "RaffleEnter",
      "type": "event"
    },
    {
      "anonymous": false,
      "inputs": [
        {
          "indexed": true,
          "internalType": "uint256",
          "name": "requestID",
          "type": "uint256"
        }
      ],
      "name": "RequestedRaffleWinner",
      "type": "event"
    },
    {
      "anonymous": false,
      "inputs": [
        {
          "indexed": true,
          "internalType": "address",
          "name": "winner",
          "type": "address"
        }
      ],
      "name": "WinnerPicked",
      "type": "event"
    },
    {
      "inputs": [
        {
          "internalType": "bytes",
          "name": "",
          "type": "bytes"
        }
      ],
      "name": "checkUpkeep",
      "outputs": [
        {
          "internalType": "bool",
          "name": "upkeepNeeded",
          "type": "bool"
        },
        {
          "internalType": "bytes",
          "name": "",
          "type": "bytes"
        }
      ],
      "stateMutability": "nonpayable",
      "type": "function"
    },
    {
      "inputs": [],
      "name": "enterRaffle",
      "outputs": [],
      "stateMutability": "payable",
      "type": "function"
    },
    {
      "inputs": [],
      "name": "getEntranceFee",
      "outputs": [
        {
          "internalType": "uint256",
          "name": "",
          "type": "uint256"
        }
      ],
      "stateMutability": "view",
      "type": "function"
    },
    {
      "inputs": [],
      "name": "getInterval",
      "outputs": [
        {
          "internalType": "uint256",
          "name": "",
          "type": "uint256"
        }
      ],
      "stateMutability": "view",
      "type": "function"
    },
    {
      "inputs": [],
      "name": "getLatestTimeStamp",
      "outputs": [
        {
          "internalType": "uint256",
          "name": "",
          "type": "uint256"
        }
      ],
      "stateMutability": "view",
      "type": "function"
    },
    {
      "inputs": [],
      "name": "getNumWords",
      "outputs": [
        {
          "internalType": "uint256",
          "name": "",
          "type": "uint256"
        }
      ],
      "stateMutability": "pure",
      "type": "function"
    },
    {
      "inputs": [],
      "name": "getNumberOfPlayers",
      "outputs": [
        {
          "internalType": "uint256",
          "name": "",
          "type": "uint256"
        }
      ],
      "stateMutability": "view",
      "type": "function"
    },
    {
      "inputs": [
        {
          "internalType": "uint256",
          "name": "index",
          "type": "uint256"
        }
      ],
      "name": "getPlayer",
      "outputs": [
        {
          "internalType": "address",
          "name": "",
          "type": "address"
        }
      ],
      "stateMutability": "view",
      "type": "function"
    },
    {
      "inputs": [],
      "name": "getRaffleState",
      "outputs": [
        {
          "internalType": "enum MyRaffle.RaffleState",
          "name": "",
          "type": "uint8"
        }
      ],
      "stateMutability": "view",
      "type": "function"
    },
    {
      "inputs": [],
      "name": "getRecentWinner",
      "outputs": [
        {
          "internalType": "address",
          "name": "",
          "type": "address"
        }
      ],
      "stateMutability": "view",
      "type": "function"
    },
    {
      "inputs": [],
      "name": "getRequestConfirmations",
      "outputs": [
        {
          "internalType": "uint256",
          "name": "",
          "type": "uint256"
        }
      ],
      "stateMutability": "pure",
      "type": "function"
    },
    {
      "inputs": [
        {
          "internalType": "bytes",
          "name": "",
          "type": "bytes"
        }
      ],
      "name": "performUpkeep",
      "outputs": [],
      "stateMutability": "nonpayable",
      "type": "function"
    },
    {
      "inputs": [
        {
          "internalType": "uint256",
          "name": "requestId",
          "type": "uint256"
        },
        {
          "internalType": "uint256[]",
          "name": "randomWords",
          "type": "uint256[]"
        }
      ],
      "name": "rawFulfillRandomWords",
      "outputs": [],
      "stateMutability": "nonpayable",
      "type": "function"
    }
  ],
  "bytecode": "0x6101606040523480156200001257600080fd5b5060405162001848380380620018488339818101604052810190620000389190620002a0565b858073ffffffffffffffffffffffffffffffffffffffff1660808173ffffffffffffffffffffffffffffffffffffffff1660601b81525050508460a081815250508573ffffffffffffffffffffffffffffffffffffffff1660c08173ffffffffffffffffffffffffffffffffffffffff1660601b815250508360e081815250508267ffffffffffffffff166101008167ffffffffffffffff1660c01b815250508163ffffffff166101208163ffffffff1660e01b815250506000600160146101000a81548160ff021916908360018111156200011957620001186200033c565b5b0217905550426002819055508061014081815250505050505050506200036b565b600080fd5b600073ffffffffffffffffffffffffffffffffffffffff82169050919050565b60006200016c826200013f565b9050919050565b6200017e816200015f565b81146200018a57600080fd5b50565b6000815190506200019e8162000173565b92915050565b6000819050919050565b620001b981620001a4565b8114620001c557600080fd5b50565b600081519050620001d981620001ae565b92915050565b6000819050919050565b620001f481620001df565b81146200020057600080fd5b50565b6000815190506200021481620001e9565b92915050565b600067ffffffffffffffff82169050919050565b62000239816200021a565b81146200024557600080fd5b50565b60008151905062000259816200022e565b92915050565b600063ffffffff82169050919050565b6200027a816200025f565b81146200028657600080fd5b50565b6000815190506200029a816200026f565b92915050565b60008060008060008060c08789031215620002c057620002bf6200013a565b5b6000620002d089828a016200018d565b9650506020620002e389828a01620001c8565b9550506040620002f689828a0162000203565b94505060606200030989828a0162000248565b93505060806200031c89828a0162000289565b92505060a06200032f89828a01620001c8565b9150509295509295509295565b7f4e487b7100000000000000000000000000000000000000000000000000000000600052602160045260246000fd5b60805160601c60a05160c05160601c60e0516101005160c01c6101205160e01c61014051611461620003e7600039600081816107ea0152610858015260006106990152600061067601526000610655015260006106190152600081816102fa01526103f7015260008181610337015261038b01526114616000f3fe6080604052600436106100c25760003560e01c8063473f1ddc1161007f5780636e04ff0d116100595780636e04ff0d1461022557806391ad27b414610263578063e55ae4e81461028e578063fd6673f5146102cb576100c2565b8063473f1ddc146101a457806353a2c19a146101cf5780635f1b0fd8146101fa576100c2565b806309bc33a7146100c7578063115cbaf5146100f25780631fe543e31461011d5780632cfcc53914610146578063320229eb146101505780634585e33b1461017b575b600080fd5b3480156100d357600080fd5b506100dc6102f6565b6040516100e99190610bc0565b60405180910390f35b3480156100fe57600080fd5b5061010761031e565b6040516101149190610c52565b60405180910390f35b34801561012957600080fd5b50610144600480360381019061013f9190610e06565b610335565b005b61014e6103f5565b005b34801561015c57600080fd5b50610165610558565b6040516101729190610bc0565b60405180910390f35b34801561018757600080fd5b506101a2600480360381019061019d9190610ebd565b610562565b005b3480156101b057600080fd5b506101b9610761565b6040516101c69190610f4b565b60405180910390f35b3480156101db57600080fd5b506101e461078b565b6040516101f19190610bc0565b60405180910390f35b34801561020657600080fd5b5061020f61079a565b60405161021c9190610bc0565b60405180910390f35b34801561023157600080fd5b5061024c6004803603810190610247919061101b565b6107a7565b60405161025a929190611107565b60405180910390f35b34801561026f57600080fd5b50610278610854565b6040516102859190610bc0565b60405180910390f35b34801561029a57600080fd5b506102b560048036038101906102b09190611137565b61087c565b6040516102c29190610f4b565b60405180910390f35b3480156102d757600080fd5b506102e06108c3565b6040516102ed9190610bc0565b60405180910390f35b60007f0000000000000000000000000000000000000000000000000000000000000000905090565b6000600160149054906101000a900460ff16905090565b7f000000000000000000000000000000000000000000000000000000000000000073ffffffffffffffffffffffffffffffffffffffff163373ffffffffffffffffffffffffffffffffffffffff16146103e757337f00000000000000000000000000000000000000000000000000000000000000006040517f1cf993f40000000000000000000000000000000000000000000000000000000081526004016103de929190611164565b60405180910390fd5b6103f182826108cf565b5050565b7f000000000000000000000000000000000000000000000000000000000000000034101561044f576040517fa10e43c700000000000000000000000000000000000000000000000000000000815260040160405180910390fd5b6000600181111561046357610462610bdb565b5b600160149054906101000a900460ff16600181111561048557610484610bdb565b5b146104bc576040517f1425571c00000000000000000000000000000000000000000000000000000000815260040160405180910390fd5b6000339080600181540180825580915050600190039060005260206000200160009091909190916101000a81548173ffffffffffffffffffffffffffffffffffffffff021916908373ffffffffffffffffffffffffffffffffffffffff1602179055507f0805e1d667bddb8a95f0f09880cf94f403fb596ce79928d9f29b74203ba284d43360405161054e9190610f4b565b60405180910390a1565b6000600254905090565b600061057c604051806020016040528060008152506107a7565b509050806105eb5747600080549050600160149054906101000a900460ff1660018111156105ad576105ac610bdb565b5b6040517f584327aa0000000000000000000000000000000000000000000000000000000081526004016105e29392919061118d565b60405180910390fd5b60018060146101000a81548160ff021916908360018111156106105761060f610bdb565b5b021790555060007f000000000000000000000000000000000000000000000000000000000000000073ffffffffffffffffffffffffffffffffffffffff16635d3b1d307f00000000000000000000000000000000000000000000000000000000000000007f000000000000000000000000000000000000000000000000000000000000000060037f000000000000000000000000000000000000000000000000000000000000000060016040518663ffffffff1660e01b81526004016106da95949392919061123c565b602060405180830381600087803b1580156106f457600080fd5b505af1158015610708573d6000803e3d6000fd5b505050506040513d601f19601f8201168201806040525081019061072c91906112a4565b9050807fcd6e45c8998311cab7e9d4385596cac867e20a0587194b954fa3a731c93ce78b60405160405180910390a250505050565b6000600160009054906101000a900473ffffffffffffffffffffffffffffffffffffffff16905090565b6000600163ffffffff16905090565b6000600361ffff16905090565b600060606000600160149054906101000a900460ff1660018111156107cf576107ce610bdb565b5b600060018111156107e3576107e2610bdb565b5b14905060007f00000000000000000000000000000000000000000000000000000000000000006002546108169190611300565b42119050600080600080549050119050600080471190508380156108375750825b80156108405750815b80156108495750805b955050505050915091565b60007f0000000000000000000000000000000000000000000000000000000000000000905090565b600080828154811061089157610890611356565b5b9060005260206000200160009054906101000a900473ffffffffffffffffffffffffffffffffffffffff169050919050565b60008080549050905090565b60008080549050826000815181106108ea576108e9611356565b5b60200260200101516108fc91906113b4565b9050600080828154811061091357610912611356565b5b9060005260206000200160009054906101000a900473ffffffffffffffffffffffffffffffffffffffff16905080600160006101000a81548173ffffffffffffffffffffffffffffffffffffffff021916908373ffffffffffffffffffffffffffffffffffffffff1602179055506000600160146101000a81548160ff021916908360018111156109a7576109a6610bdb565b5b0217905550600067ffffffffffffffff8111156109c7576109c6610cc3565b5b6040519080825280602002602001820160405280156109f55781602001602082028036833780820191505090505b5060009080519060200190610a0b929190610b00565b504260028190555060008173ffffffffffffffffffffffffffffffffffffffff1647604051610a3990611416565b60006040518083038185875af1925050503d8060008114610a76576040519150601f19603f3d011682016040523d82523d6000602084013e610a7b565b606091505b5050905080610ab6576040517fa1d04b3900000000000000000000000000000000000000000000000000000000815260040160405180910390fd5b8173ffffffffffffffffffffffffffffffffffffffff167f5b690ec4a06fe979403046eaeea5b3ce38524683c3001f662c8b5a829632f7df60405160405180910390a25050505050565b828054828255906000526020600020908101928215610b79579160200282015b82811115610b785782518260006101000a81548173ffffffffffffffffffffffffffffffffffffffff021916908373ffffffffffffffffffffffffffffffffffffffff16021790555091602001919060010190610b20565b5b509050610b869190610b8a565b5090565b5b80821115610ba3576000816000905550600101610b8b565b5090565b6000819050919050565b610bba81610ba7565b82525050565b6000602082019050610bd56000830184610bb1565b92915050565b7f4e487b7100000000000000000000000000000000000000000000000000000000600052602160045260246000fd5b60028110610c1b57610c1a610bdb565b5b50565b6000819050610c2c82610c0a565b919050565b6000610c3c82610c1e565b9050919050565b610c4c81610c31565b82525050565b6000602082019050610c676000830184610c43565b92915050565b6000604051905090565b600080fd5b600080fd5b610c8a81610ba7565b8114610c9557600080fd5b50565b600081359050610ca781610c81565b92915050565b600080fd5b6000601f19601f8301169050919050565b7f4e487b7100000000000000000000000000000000000000000000000000000000600052604160045260246000fd5b610cfb82610cb2565b810181811067ffffffffffffffff82111715610d1a57610d19610cc3565b5b80604052505050565b6000610d2d610c6d565b9050610d398282610cf2565b919050565b600067ffffffffffffffff821115610d5957610d58610cc3565b5b602082029050602081019050919050565b600080fd5b6000610d82610d7d84610d3e565b610d23565b90508083825260208201905060208402830185811115610da557610da4610d6a565b5b835b81811015610dce5780610dba8882610c98565b845260208401935050602081019050610da7565b5050509392505050565b600082601f830112610ded57610dec610cad565b5b8135610dfd848260208601610d6f565b91505092915050565b60008060408385031215610e1d57610e1c610c77565b5b6000610e2b85828601610c98565b925050602083013567ffffffffffffffff811115610e4c57610e4b610c7c565b5b610e5885828601610dd8565b9150509250929050565b600080fd5b60008083601f840112610e7d57610e7c610cad565b5b8235905067ffffffffffffffff811115610e9a57610e99610e62565b5b602083019150836001820283011115610eb657610eb5610d6a565b5b9250929050565b60008060208385031215610ed457610ed3610c77565b5b600083013567ffffffffffffffff811115610ef257610ef1610c7c565b5b610efe85828601610e67565b92509250509250929050565b600073ffffffffffffffffffffffffffffffffffffffff82169050919050565b6000610f3582610f0a565b9050919050565b610f4581610f2a565b82525050565b6000602082019050610f606000830184610f3c565b92915050565b600080fd5b600067ffffffffffffffff821115610f8657610f85610cc3565b5b610f8f82610cb2565b9050602081019050919050565b82818337600083830152505050565b6000610fbe610fb984610f6b565b610d23565b905082815260208101848484011115610fda57610fd9610f66565b5b610fe5848285610f9c565b509392505050565b600082601f83011261100257611001610cad565b5b8135611012848260208601610fab565b91505092915050565b60006020828403121561103157611030610c77565b5b600082013567ffffffffffffffff81111561104f5761104e610c7c565b5b61105b84828501610fed565b91505092915050565b60008115159050919050565b61107981611064565b82525050565b600081519050919050565b600082825260208201905092915050565b60005b838110156110b957808201518184015260208101905061109e565b838111156110c8576000848401525b50505050565b60006110d98261107f565b6110e3818561108a565b93506110f381856020860161109b565b6110fc81610cb2565b840191505092915050565b600060408201905061111c6000830185611070565b818103602083015261112e81846110ce565b90509392505050565b60006020828403121561114d5761114c610c77565b5b600061115b84828501610c98565b91505092915050565b60006040820190506111796000830185610f3c565b6111866020830184610f3c565b9392505050565b60006060820190506111a26000830186610bb1565b6111af6020830185610bb1565b6111bc6040830184610bb1565b949350505050565b6000819050919050565b6111d7816111c4565b82525050565b600067ffffffffffffffff82169050919050565b6111fa816111dd565b82525050565b600061ffff82169050919050565b61121781611200565b82525050565b600063ffffffff82169050919050565b6112368161121d565b82525050565b600060a08201905061125160008301886111ce565b61125e60208301876111f1565b61126b604083018661120e565b611278606083018561122d565b611285608083018461122d565b9695505050505050565b60008151905061129e81610c81565b92915050565b6000602082840312156112ba576112b9610c77565b5b60006112c88482850161128f565b91505092915050565b7f4e487b7100000000000000000000000000000000000000000000000000000000600052601160045260246000fd5b600061130b82610ba7565b915061131683610ba7565b9250827fffffffffffffffffffffffffffffffffffffffffffffffffffffffffffffffff0382111561134b5761134a6112d1565b5b828201905092915050565b7f4e487b7100000000000000000000000000000000000000000000000000000000600052603260045260246000fd5b7f4e487b7100000000000000000000000000000000000000000000000000000000600052601260045260246000fd5b60006113bf82610ba7565b91506113ca83610ba7565b9250826113da576113d9611385565b5b828206905092915050565b600081905092915050565b50565b60006114006000836113e5565b915061140b826113f0565b600082019050919050565b6000611421826113f3565b915081905091905056fea2646970667358221220c29d05408f0b647e271233beabbfa304b824901c0a7dfd47918a114ae860e43c64736f6c63430008080033",
  "linkReferences": {},
  "deployedLinkReferences": {}
}